:100000000C942A000C9447000C9447000C94470071
:100010000C9447000C9447000C9447000C94470044
:100020000C9447000C9447000C9447000C94470034
:100030000C9447000C9447000C9447000C94470024
:100040000C9447000C9447000C9447000C94470014
:100050000C94470011241FBECFE5D8E0DEBFCDBF12
:1000600010E0A0E6B0E0E6E8F8E002C005900D92EE
:10007000A038B107D9F720E0A0E8B0E001C01D9298
:10008000A638B207E1F70E943E010C9441040C949B
:10009000000098B39F70282F207F922B98BBC098A8
:1000A000C19A32E03A95F1F700C0C198E7ECF0E070
:1000B0003197F1F700C0000028B32F70F0E18F9F57
:1000C000C0011124822B88BBC19A32E03A95F1F726
:1000D00000C0C1988FE99FE00197F1F700C00000D0
:1000E000089598B39F70282F207F922B98BBC09AB9
:1000F000C19A32E03A95F1F700C0C198E7ECF0E020
:100100003197F1F700C0000028B32F70F0E18F9F06
:10011000C0011124822B88BBC19A32E03A95F1F7D5
:1001200000C0C1988FE99FE00197F1F700C000007F
:1001300008958FEF87BB2FEF81EE94E02150804030
:100140009040E1F700C0000083E30E9449002FEFD8
:1001500081EE94E0215080409040E1F700C0000023
:1001600082E30E94490088E20E9449008CE00E94DC
:10017000490081E00E9449008FE39CE90197F1F773
:1001800000C0000082E80E9449000895CF93DF93E9
:1001900000D0CDB7DEB790E8998390EC9A83FE014A
:1001A000E60FF11D9181890F0E9449000F900F9079
:1001B000DF91CF9108950F931F93CF93FC0180811E
:1001C000882359F08F01C0E00E947100CF5FF801D1
:1001D000EC0FF11D80818111F7CFCF911F910F910D
:1001E000089581E00E9449008FE99FE00197F1F7AF
:1001F00000C0000008958FE081BB8E9A96988FE32F
:100200009CE90197F1F700C00000969A08958E9836
:100210008699FECF869BFECF8699FECF089588E013
:1002200090E0869BFECF20E52A95F1F7869B07C0DC
:1002300020918000220F21602093800005C0209132
:100240008000220F209380008699FECF019749F706
:1002500080918000089580E487B987E886B9089581
:1002600097B1907E97B997B18770982B97B9369AC6
:10027000349BFECF349A84B195B10895CF93DF9328
:1002800000D000D01F92CDB7DEB78FEF84BB1ABA73
:100290000E9499000E94F10060E080E00E94C60088
:1002A00080E690E00E94DB0061E080E00E94C600F2
:1002B0008BE690E00E94DB00D0980E942B01C12CBD
:1002C000D12C6894BB24B1F86894772472F86894B0
:1002D000882483F8512C612C33243394212C0F2E45
:1002E000F0ECAF2EF02D0F2EF1EC9F2EF02D0F2EF7
:1002F000F2EC4F2EF02D80E00E9430017C010E9434
:10030000FB000E9407010E940F01809384000E945D
:100310000F01809381000E940F01809383000E944F
:100320000F01809385000E940F018093820000914D
:10033000840010918300E02FF0E0909181009F01F4
:10034000290F311D210F311D90918500290F311D7D
:1003500090E02817390749F060E080E00E94C6006D
:1003600083E790E00E94DB0070C100554AE0BE01C7
:100370006F5F7F4FCF010E940C0460E08BE00E9412
:10038000C600CE0101960E94DB0089E790E00E9442
:10039000DB00809181004AE0BE016F5F7F4F90E0FB
:1003A0000E940C04CE0101960E94DB008BE790E0D6
:1003B0000E94DB00809183004AE0BE016F5F7F4FA7
:1003C00090E00E940C0461E086E00E94C600CE012D
:1003D00001960E94DB0089E790E00E94DB0080919B
:1003E00085004AE0BE016F5F7F4F90E00E940C04E1
:1003F000CE0101960E94DB008FED0E9471008DE717
:1004000090E00E94DB00809182004AE0BE016F5FB5
:100410007F4F90E00E940C04CE0101960E94DB0009
:1004200081E790E00E94DB00809183008C3170F5C1
:100430000630B0F52DEBE21622E0F206C8F08FEFA1
:1004400090E722E0815090402040E1F700C000009A
:1004500080E185BB80918300843110F481E185BB0C
:10046000809183008C3120F4C114D10409F481C13E
:100470008CEBE81682E0F80698F480E385BB809167
:100480008300843168F481E385BB0AC0813240F087
:10049000063030F4A5BA80918300893208F095BA0D
:1004A0001C5180918400803558F41530D0F4B5BAD1
:1004B00080918400863408F0B2C083E085BBAFC071
:1004C000863560F0153068F480E485BB8091840047
:1004D0008A3508F4A4C081E485BBA1C0153008F4B6
:1004E00089C1063008F4BBC0803508F04CC090913B
:1004F00083009C31C0F59DEBE91692E0F90608F403
:1005000064C12FEF80E792E0215080409040E1F7F6
:1005100000C0000082E185BB80918300843120F01F
:1005200080918400863410F483E185BB8091830040
:100530008C3128F4C114D10409F4C3C046C12CEB9A
:10054000E21622E0F20608F08AC082E385BB8091C1
:100550008300843128F080918400863408F07FC0C5
:1005600083E385BB7CC0913208F439C145BA8091E0
:100570008300893228F480918400863408F06FC0AB
:1005800083EC85BB6CC0863508F43AC1809183004A
:10059000813260F0A5BA80918300893228F480917D
:1005A00084008A3508F45BC095BA59C08C3108F0D4
:1005B0002DC18DEBE81682E0F80608F414C19FEF18
:1005C00020E782E0915020408040E1F700C0000029
:1005D00090E595BB80918300843120F08091840068
:1005E0008A3510F021E525BB809183008C3128F4F9
:1005F000C114D10409F491C0F6C08CEBE81682E076
:10060000F80668F590E795BB80918300843120F06F
:10061000809184008A3518F121E725BB20C08091A4
:1006200083008C3120F081E0C816D104F1F0153040
:1006300060F4063050F49FEF20E782E091502040B4
:100640008040E1F700C0000015BA9FE728E381E091
:10065000915020408040E1F700C000004CCE8091D6
:1006600083008C3108F0D2C0F0CF81E082BB9FEFD5
:1006700023ED80E3915020408040E1F700C000006E
:10068000B2BA9FEF23ED80E3915020408040E1F724
:1006900000C0000072BA9FEF23ED80E3915020402C
:1006A0008040E1F700C0000082BA9FEF23ED80E3B5
:1006B000915020408040E1F700C00000C52CD62CAE
:1006C000B6CF82BA9FEF23ED80E391502040804067
:1006D000E1F700C0000072BA9FEF23ED80E3915074
:1006E00020408040E1F700C00000B2BA9FEF23ED48
:1006F00080E3915020408040E1F700C0000081E09D
:1007000082BB9FEF23ED80E3915020408040E1F7D2
:1007100000C00000C32CD22C12CF82BA9FEF23ED71
:1007200080E3915020408040E1F700C0000072BAA1
:100730009FEF23ED80E3915020408040E1F700C01F
:100740000000B2BA9FEF23ED80E39150204080403B
:10075000E1F700C0000081E082BB9FEF23ED80E362
:10076000915020408040E1F700C00000C32CD22C03
:1007700044CF82BA9FEF23ED80E391502040804028
:10078000E1F700C0000072BA9FEF23ED80E39150C3
:1007900020408040E1F700C00000B2BA9FEF23ED97
:1007A00080E3915020408040E1F700C0000081E0EC
:1007B00082BB9FEF23ED80E3915020408040E1F722
:1007C00000C00000C32CD22C53CE9CEBE91692E063
:1007D000F90608F4BACE39CF80918300E7CE86358A
:1007E00008F41DCFF9CF2CEBE21622E0F20608F454
:1007F00009CF2BCF809183008C3108F41ACF13CF0F
:10080000809183008C3108F420CF0DCF81E0C81691
:10081000D10409F01ACF29CFBB274A3031F49923EC
:1008200022F4BDE2909581959F4F0C941804BB274C
:10083000FB015527AA27880F991FAA1FA41710F09C
:10084000A41B83955051B9F7A05DAA3308F0A95DA8
:10085000A193009779F7B111B1931192CB010C9448
:100860003104DC01FC01672F71917723E1F73297A6
:1008700004C07C916D9370836291AE17BF07C8F37B
:060880000895F894FFCF7B
:1008860048756D6964697479203D0054656D702002
:100896003D20004572726F72002E00250043200035
:00000001FF
